S021000044616D70696E674D6F746F72436F6E74726F6C4578653030312E737265639E
S11300000C9461000C947E000C947E000C947E0091
S11300100C947E000C947E000C9484020C947E005C
S11300200C947E000C947E000C947E000C947E0054
S11300300C9403030C942C030C947E000C947E000B
S11300400C947E000C947E000C947E000C947E0034
S11300500C947E000C947E000C947E000C947E0024
S11300600C947E000C947E000C947E000C947E0014
S11300700C947E000C947E000C947E000C947E0004
S11300800C947E000C947E000C947E000C947E00F4
S11300900C947E000C947E000C947E000C947E00E4
S11300A00C947E000C947E000C94BA020C947E0096
S11300B0A4017E018101840187018A018D019001DF
S11300C0930111241FBECFEFCDBFDFE7DEBF10E7E2
S11300D0A0E0B0E7E8E9FDE002C005900D92A83089
S11300E0B107D9F720E7A8E0B0E701C01D92A53217
S11300F0B207E1F70E9453030C94CA060C94000063
S1130100E0E0F4E0908581E0892781709085969500
S11301109170891711F08BEF089585E00895E091AF
S11301200270F091037081E481878AE0848781E022
S113013082836DE87BE580910070909101700E944C
S113014063060895E0910270F0910370838586FF41
S113015005C0838580FD04C081E0089582E0089590
S113016080E00895E0910270F0910370862B8287FD
S11301700895E0910270F091037083858270089570
S1130180E0910270F0910370838580780895E09186
S11301900270F09103708585089580930870089526
S11301A080910070909101700E9477060BC0E091DD
S11301B00070F09101708681882321F080E00E9414
S11301C0CD0004C00E94C000882389F38091007090
S11301D0909101700E947C060895809108700895A2
S11301E0E0910270F091037085870895E0E2F9E0F0
S11301F080818E7F808308950F931F93CF93DF9325
S1130200FC01D62FC0E00EC08F010F5F1F4F80810D
S11302100E94F00060E083E00E94B2000E94D000DF
S1130220CF5FF8018D2F90E02C2F0C2E000C330B98
S1130230281739074CF360E082E00E94B200DF9196
S1130240CF911F910F910895CF92DF92EF92FF9279
S11302500F931F93CF93DF93CDB7DEB72897CDBF0E
S1130260DEBFE82E19821A821B821C821D821E8226
S11302701F821886F12C8E010F5F1F4F10C068017A
S11302808FEFC81AD80A0E94C700F801808360E083
S113029083E00E94B2000E94D000F39486012F2DC7
S11302A030E08E2D90E001972817390744F30E941F
S11302B0C700F801808364E082E00E94B2000E94DB
S11302C0D00029813A814B815C816D817E818F814F
S11302D098852896CDBFDEBFDF91CF911F910F91F6
S11302E0FF90EF90DF90CF90089590E089309105D2
S11302F028F5FC01E85AFF4F0C94A9060E94A801B6
S113030023C00E94CB0120C00E94EE011DC00E94A8
S113031011021AC00E94320217C00E944F0214C078
S11303200E94680211C081E00E942401A0E00E94A2
S1130330BE0651F488E00E94A70506C081E00E9431
S1130340240180E00E94CD0080E00E94CD00089549
S1130350CF93DF9300D0CDB7DEB719821A820E9403
S1130360B90081110AC082E00E942401822F932FD8
S113037029833A830E94FF0409C00E9449058983A6
S11303809A8362E0CE0101960E94FC000F900F90C8
S1130390DF91CF910895CF93DF9300D0CDB7DEB72F
S11303A019821A820E94B90081110AC082E00E9457
S11303B02401822F932F29833A830E94190509C0AF
S11303C00E94420589839A8362E0CE0101960E94CD
S11303D0FC000F900F90DF91CF910895CF93DF939E
S11303E000D0CDB7DEB719821A820E94B9008111FC
S11303F00AC082E00E942401822F932F29833A832A
S11304000E946C0409C00E94500589839A8362E0AB
S1130410CE0101960E94FC000F900F90DF91CF91C6
S11304200895CF93DF9300D0CDB7DEB70E94B90013
S113043081110AC082E00E942401822F932F298314
S11304403A830E94CB0409C00E94E70589839A83FA
S113045062E0CE0101960E94FC000F900F90DF91A4
S1130460CF910895CF93DF931F92CDB7DEB70E944B
S1130470B900811108C081E00E942401822F2983E0
S11304800E945A0408C00E94EE05898361E0CE01EF
S113049001960E94FC000F90DF91CF910895CF93B5
S11304A0DF931F92CDB7DEB719820E94B900811184
S11304B003C00E94240108C00E94B805898361E03A
S11304C0CE0101960E94FC000F90DF91CF91089518
S11304D0CF93DF9300D0CDB7DEB719821A820E9482
S11304E0B900811103C00E94240109C00E945E0664
S11304F089839A8362E0CE0101960E94FC000F90EA
S11305000F90DF91CF9108951F920F920FB60F9223
S113051011242F933F934F935F936F937F938F9304
S11305209F93AF93BF93CF93DF93EF93FF93C0E079
S1130530D4E08C8184608C830E948C050E948000AE
S11305400E94790481E089878C818B7F8C83FF9161
S1130550EF91DF91CF91BF91AF919F918F917F9157
S11305606F915F914F913F912F910F900FBE0F901C
S11305701F9018951F920F920FB60F9211242F936C
S11305803F934F935F936F937F938F939F93AF9317
S1130590BF93EF93FF930E94ED00811117C00E9457
S11305A0A20081111FC00E94B90081111BC060E02C
S11305B083E00E94B2000E94D0000E94C7000E9403
S11305C0CD0064E082E00E94B2000CC060E083E0F1
S11305D00E94B2000E94C0008823E1F30E94ED0053
S11305E00E947501FF91EF91BF91AF919F918F91FF
S11305F07F916F915F914F913F912F910F900FBE1B
S11306000F901F9018951F920F920FB60F921124FE
S11306102F933F934F935F936F937F938F939F9306
S1130620AF93BF93EF93FF930E94F6000E948F0055
S113063081E08093060BFF91EF91BF91AF919F9161
S11306408F917F916F915F914F913F912F910F9077
S11306500FBE0F901F9018951F920F920FB60F9216
S113066011242F933F934F935F936F937F938F93B3
S11306709F93AF93BF93EF93FF930E949F0581E0F5
S11306808093160BFF91EF91BF91AF919F918F9142
S11306907F916F915F914F913F912F910F900FBE7A
S11306A00F901F90189578940E9436060E94F405C6
S11306B00E940D060E941F060E942E060E946C06D0
S11306C00E943F060E945F0505C00E94B80583FD95
S11306D00E94BE050E9442050196B9F30E94490595
S11306E0019699F316C00E944205EC010E94490547
S11306F0C817D90724F48FEF0E94BD0403C081E01A
S11307000E94BD040E949B03E0E4F4E084818B7F9B
S113071084830E943305882331F3E0E4F4E0848188
S1130720846084830E9473040E94B80583FFF1CF20
S11307300E94BE05EECFE0910670F09107708481AF
S11307408230F1F12CF4882361F0813001F19CC0F6
S1130750843009F467C00CF44CC0853009F47BC0C4
S113076093C08085918548EC489F9001499F300D46
S11307701124A9E8B8E80E94AF06BC0176956795F4
S1130780729562956F7067277F7067277FC0408579
S1130790518580E991E0489F9001499F300D589F11
S11307A0300D1124A9E8B8E80E94AF06BC01769583
S11307B06795729562956F7067277F70672766C02B
S11307C04085518580E293E0489F9001499F300D18
S11307D0589F300D1124A9E8B8E80E94AF06BC0167
S11307E076956795729562956F7067277F70672716
S11307F04DC04085518580E496E0489F9001499F13
S1130800300D589F300D1124A9E8B8E80E94AF06B6
S1130810BC0176956795729562956F7067277F70B6
S1130820672734C04085518580E89CE0489F90014B
S1130830499F300D589F300D1124A9E8B8E80E9453
S1130840AF06BC0176956795729562956F706727C0
S11308507F7067271BC04085518580E099E1489FE0
S11308609001499F300D589F300D1124A9E8B8E834
S11308700E94AF06BC0176956795729562956F707C
S113088067277F70672702C060E070E0611571051B
S113089021F483858460838708958DE89BE50E9415
S11308A08106E0E2FBE0648766956587808181606C
S11308B080830895A0910670B091077014968C936C
S11308C01497E0E6F4E08481887F8483948114960D
S11308D08C91892B84830895E0910670F0910770C0
S11308E0808791870895E0E2FBE080818E7F80839A
S11308F00895E0910670F091077020813181280FEE
S1130900311D87FD3A9520833183E0910670F09183
S11309100770808191818D3221E092071CF023853C
S11309202460238799231CF4838584608387089536
S1130930E0E6F4E0908190689083178AE091067075
S1130940F09107708783813061F018F0823079F07C
S11309500895E0E6F4E080818F77808384E0878BDC
S11309600895E0E6F4E08481806884830895E0E6F5
S1130970F4E084818F7784830895813031F4E0E456
S1130980F4E08481826084830895E0E4F4E0848167
S11309908D7F848308959C01215031092E3F33407B
S11309A038F4E0910670F09107708583968308C04F
S11309B0E0910670F091077083E391E0858396835C
S11309C0E0EAF6E01082A0910670B09107701596E7
S11309D08D919C91169700249695879507949695EA
S11309E087950794982F802D1C968D939C931D9723
S11309F082831D968C91838381E4808308956AE0C9
S1130A0070E00E949506CB01880F991F660F771F2F
S1130A10660F771F660F771F680F791F6D3281E0AD
S1130A20780730F4E0910670F09107706283738365
S1130A3008956AE070E00E949506CB01880F991F23
S1130A40660F771F660F771F660F771F680F791F72
S1130A506D3281E0780730F4E0910670F091077010
S1130A60608371830895E0910670F091077020818E
S1130A703181828193812817390711F481E0089527
S1130A8080E00895E0910670F09107708081918173
S1130A900895E0910670F091077082819381089522
S1130AA0E0910670F0910770808591850895BC01EE
S1130AB080910470909105700E9463060895E0E4AB
S1130AC0F4E084818460848383E391E00E94CB0416
S1130AD081E00E945A0484E690E00E946C0480E065
S1130AE00E9498048DE89BE50E945705E0910670EA
S1130AF0F09107708FEF9FEF80839183E0910670F0
S1130B00F09107708283938308958091047090918B
S1130B1005700E9477060895E0910470F0910570C5
S1130B2012861386E0910670F0910770128608957C
S1130B3080910470909105700E947C060895E09164
S1130B400670F091077082858F5F82870895E09127
S1130B500670F09107709385892B83870895E0913F
S1130B600670F09107708095938589238387089593
S1130B70E0910670F09107708385089581E00E94EA
S1130B80BD040E949B03E0E4F4E084818B7F8483B2
S1130B9083EE96E10E9457050E948C050E9485050C
S1130BA0E0910670F091077082858823C9F30E9452
S1130BB098050E94730480E090E00E94FF0480E0A6
S1130BC090E00E94190588E00E94AF050895E09125
S1130BD00670F0910770858196810895E091067002
S1130BE0F091077084810895E0E0F4E080818C69DD
S1130BF0808384818B7F84838481877F84838481C1
S1130C008F7E848380818C7F808381E0808B88EDDC
S1130C1084BF80E8809360000895E0E4F4E080817C
S1130C208760808384818B7F84838081877F8083B6
S1130C30E0E2FBE087E1818384E080830895E0E6DD
S1130C40F4E080818F6980838481886184838081DA
S1130C508F7D808383E88093A2000895E0EAF4E026
S1130C6080818F7C80830E948F00089588ED84BFEB
S1130C70E0E6F0E095E2908784BF11820895E0EA0F
S1130C80F0E0808183608083E0E0F6E08081826030
S1130C90808382818D60828384E1858381E0848383
S1130CA095E1908790E4918724E539E0228B338B9A
S1130CB08687908191609083828708958091100641
S1130CC0909111060895FC0184E08083118281E0F3
S1130CD08583648775870895E0E0FAE08FE0808378
S1130CE081E086878FEF9FEF86A397A30895FC0189
S1130CF09081916090830895FC0190819E7F908300
S1130D000895AA1BBB1B51E107C0AA1FBB1FA6174E
S1130D10B70710F0A61BB70B881F991F5A95A9F7A0
S1130D2080959095BC01CD01089597FB072E16F48C
S1130D30009407D077FD09D00E94810607FC05D0F6
S1130D403EF4909581959F4F0895709561957F4FDE
S1130D500895EE0FFF1F0590F491E02D0994A29FD2
S1130D60B001B39FC001A39F700D811D1124911D7B
S1130D70B29F700D811D1124911D08950024A7FDBB
S1130D8000942A173005400550056005700580055C
S10B0D9090050895F894FFCFCB
S10B0D98000B2009100B177079
S9030000FC
