S021000044616D70696E674D6F746F72436F6E74726F6C4578653030312E737265639E
S11300000C9461000C947E000C947E000C947E0091
S11300100C947E000C947E000C9484020C947E005C
S11300200C947E000C947E000C947E000C947E0054
S11300300C9407030C9430030C947E000C947E0003
S11300400C947E000C947E000C947E000C947E0034
S11300500C947E000C947E000C947E000C947E0024
S11300600C947E000C947E000C947E000C947E0014
S11300700C947E000C947E000C947E000C947E0004
S11300800C947E000C947E000C947E000C947E00F4
S11300900C947E000C947E000C947E000C947E00E4
S11300A00C947E000C947E000C94BE020C947E0092
S11300B0A4017E018101840187018A018D019001DF
S11300C0930111241FBECFEFCDBFDFE7DEBF10E7E2
S11300D0A0E0B0E7E8EEFDE002C005900D92A83084
S11300E0B107D9F720E7A8E0B0E701C01D92A93213
S11300F0B207E1F70E9457030C94F2060C94000037
S1130100E0E0F4E0908581E0892781709085969500
S11301109170891711F08BEF089585E00895E091AF
S11301200270F091037081E481878AE0848781E022
S113013082836DE87BE580910070909101700E944C
S11301408B060895E0910270F0910370838586FF19
S113015005C0838580FD04C081E0089582E0089590
S113016080E00895E0910270F0910370862B8287FD
S11301700895E0910270F091037083858270089570
S1130180E0910270F0910370838580780895E09186
S11301900270F09103708585089580930870089526
S11301A080910070909101700E949F060BC0E091B5
S11301B00070F09101708681882321F080E00E9414
S11301C0CD0004C00E94C000882389F38091007090
S11301D0909101700E94A40608958091087008957A
S11301E0E0910270F091037085870895E0E2F9E0F0
S11301F080818E7F808308950F931F93CF93DF9325
S1130200FC01D62FC0E00EC08F010F5F1F4F80810D
S11302100E94F00060E083E00E94B2000E94D000DF
S1130220CF5FF8018D2F90E02C2F0C2E000C330B98
S1130230281739074CF360E082E00E94B200DF9196
S1130240CF911F910F910895CF92DF92EF92FF9279
S11302500F931F93CF93DF93CDB7DEB72897CDBF0E
S1130260DEBFE82E19821A821B821C821D821E8226
S11302701F821886F12C8E010F5F1F4F10C068017A
S11302808FEFC81AD80A0E94C700F801808360E083
S113029083E00E94B2000E94D000F39486012F2DC7
S11302A030E08E2D90E001972817390744F30E941F
S11302B0C700F801808364E082E00E94B2000E94DB
S11302C0D00029813A814B815C816D817E818F814F
S11302D098852896CDBFDEBFDF91CF911F910F91F6
S11302E0FF90EF90DF90CF90089590E089309105D2
S11302F028F5FC01E85AFF4F0C94D1060E94A8018E
S113030023C00E94CB0120C00E94EE011DC00E94A8
S113031011021AC00E94320217C00E944F0214C078
S11303200E94680211C081E00E942401A0E00E94A2
S1130330E60651F488E00E94A90506C081E00E9407
S1130340240180E00E94CD0080E00E94CD00089549
S1130350CF93DF9300D0CDB7DEB719821A820E9403
S1130360B90081110AC082E00E942401822F932FD8
S113037029833A830E94080509C00E94560589838F
S11303809A8362E0CE0101960E94FC000F900F90C8
S1130390DF91CF910895CF93DF9300D0CDB7DEB72F
S11303A019821A820E94B90081110AC082E00E9457
S11303B02401822F932F29833A830E94220509C0A6
S11303C00E944F0589839A8362E0CE0101960E94C0
S11303D0FC000F900F90DF91CF910895CF93DF939E
S11303E000D0CDB7DEB719821A820E94B9008111FC
S11303F00AC082E00E942401822F932F29833A832A
S11304000E94850409C00E945D0589839A8362E085
S1130410CE0101960E94FC000F900F90DF91CF91C6
S11304200895CF93DF9300D0CDB7DEB70E94B90013
S113043081110AC082E00E942401822F932F298314
S11304403A830E94D40409C00E94C00589839A8318
S113045062E0CE0101960E94FC000F900F90DF91A4
S1130460CF910895CF93DF931F92CDB7DEB70E944B
S1130470B900811108C081E00E942401822F2983E0
S11304800E94730408C00E94C705898361E0CE01FD
S113049001960E94FC000F90DF91CF910895CF93B5
S11304A0DF931F92CDB7DEB719820E94B900811184
S11304B003C00E94240108C00E94BA05898361E038
S11304C0CE0101960E94FC000F90DF91CF91089518
S11304D0CF93DF9300D0CDB7DEB719821A820E9482
S11304E0B900811103C00E94240109C00E9486063C
S11304F089839A8362E0CE0101960E94FC000F90EA
S11305000F90DF91CF9108951F920F920FB60F9223
S113051011242F933F934F935F936F937F938F9304
S11305209F93AF93BF93EF93FF930E94D3058335BB
S1130530934028F40E94D3058632924018F40E9416
S1130540A10502C00E949B050E94DA050E9480005A
S11305500E94920481E080930904FF91EF91BF917E
S1130560AF919F918F917F916F915F914F913F9147
S11305702F910F900FBE0F901F9018951F920F92FE
S11305800FB60F9211242F933F934F935F936F9362
S11305907F938F939F93AF93BF93EF93FF930E94A7
S11305A0ED00811117C00E94A20081111FC00E949A
S11305B0B90081111BC060E083E00E94B2000E9478
S11305C0D0000E94C7000E94CD0064E082E00E9437
S11305D0B2000CC060E083E00E94B2000E94C00040
S11305E08823E1F30E94ED000E947501FF91EF91D1
S11305F0BF91AF919F918F917F916F915F914F9137
S11306003F912F910F900FBE0F901F9018951F923E
S11306100F920FB60F9211242F933F934F935F9332
S11306206F937F938F939F93AF93BF93EF93FF93B6
S11306300E94F6000E948F0081E08093060BFF91D8
S1130640EF91BF91AF919F918F917F916F915F9146
S11306504F913F912F910F900FBE0F901F901895BF
S11306601F920F920FB60F9211242F933F934F9323
S11306705F936F937F938F939F93AF93BF93EF9306
S1130680FF930E94A10581E08093160BFF91EF91E7
S1130690BF91AF919F918F917F916F915F914F9196
S11306A03F912F910F900FBE0F901F901895789443
S11306B00E945E060E941C060E9435060E944706A0
S11306C00E9456060E9494060E9467060E946C05CA
S11306D005C00E94BA0583FD0E94EC050E944F05E7
S11306E00196B9F30E945605019699F329C00E9418
S11306F01506811106C00E949B050E94DA050E941E
S113070094050E94CD058B3028F00E944F050E946D
S113071008051AC00E944F05EC010E945605C8172F
S1130720D90724F48FEF0E94C60403C081E00E941D
S1130730C6040E94B403E0E4F4E084818B7F8483E4
S11307400E944005882399F2E0E4F4E08481846007
S113075084830E948C040E94E1050E94BA0583FFF1
S1130760EFCF0E94EC05ECCFE0910670F09107709A
S113077086818230F1F12CF4882361F0813001F11B
S11307809CC0843009F467C00CF44CC0853009F473
S11307907BC093C08285938548EC489F9001499F14
S11307A0300D1124A9E8B8E80E94D706BC0176955B
S11307B06795729562956F7067277F7067277FC012
S11307C04285538580E991E0489F9001499F300D0F
S11307D0589F300D1124A9E8B8E80E94D706BC013F
S11307E076956795729562956F7067277F70672716
S11307F066C04285538580E293E0489F9001499FFB
S1130800300D589F300D1124A9E8B8E80E94D7068E
S1130810BC0176956795729562956F7067277F70B6
S113082067274DC04285538580E496E0489F900138
S1130830499F300D589F300D1124A9E8B8E80E9453
S1130840D706BC0176956795729562956F70672798
S11308507F70672734C04285538580E89CE0489FB9
S11308609001499F300D589F300D1124A9E8B8E834
S11308700E94D706BC0176956795729562956F7054
S113088067277F7067271BC04285538580E099E105
S1130890489F9001499F300D589F300D1124A9E8BD
S11308A0B8E80E94D706BC01769567957295629563
S11308B06F7067277F70672702C060E070E0611582
S11308C0710521F485858460858708958DE89BE50D
S11308D00E94A906E0E2FBE0648766956587808153
S11308E0816080830895A0910670B0910770169678
S11308F08C931697E0E6F4E08481887F8483948166
S113090016968C91892B84830895E0910670F0915A
S11309100770828793870895E0E2FBE080818E7FF1
S113092080830895E0910670F091077020813181F1
S113093022833383280F311D87FD3A952083318329
S11309400895E0E6F4E0908190689083178A8130FE
S113095019F0823039F00CC0E0E6F4E0948190683C
S113096094830EC0E0E6F4E094819F77948308C0FA
S1130970E0E6F4E080818F77808384E0878B80E0F9
S1130980E0910670F091077081870895813031F409
S1130990E0E4F4E08481826084830895E0E4F4E098
S11309A084818D7F848308959C01215031092E3FD9
S11309B0334038F4E0910670F09107708783908794
S11309C008C0E0910670F091077083E391E087839B
S11309D09087E0EAF6E01082A0910670B09107706B
S11309E017968D919C911897002496958795079456
S11309F0969587950794982F802D1E968D939C939A
S1130A001F9782831F968C91838381E4808308954A
S1130A106AE070E00E94BD06CB01880F991F660F43
S1130A20771F660F771F660F771F680F791F6D3268
S1130A3081E0780730F4E0910670F09107706483E8
S1130A4075830895E0910670F091077020813181DB
S1130A50228333836AE070E00E94BD06CB01880FD5
S1130A60991F660F771F660F771F660F771F680F32
S1130A70791F6D3281E0780710F4608371830895E3
S1130A80E0910670F0910770208131818481958115
S1130A902817390711F481E0089580E00895E09162
S1130AA00670F0910770808191810895E09106703D
S1130AB0F0910770848195810895E0910670F0911A
S1130AC00770828593850895BC018091047090918C
S1130AD005700E948B060895E0E4F4E0848184604C
S1130AE084838AE991E00E94D40481E00E94730423
S1130AF084E690E00E94850480E00E94A1048DE8D1
S1130B009BE50E946405E0910670F09107708FEFF9
S1130B109FEF80839183E0910670F0910770848346
S1130B2095838283938308958091047090910570D6
S1130B300E949F060895E0910670F0910770148654
S1130B400895E0910670F091077084858F5F848723
S1130B500895E0910670F09107709585892B85873B
S1130B600895E0910670F09107708095958589232A
S1130B7085870895E0910670F09107708585089542
S1130B80E0910670F0910770878190850895E09157
S1130B900670F091077086810895E0910670F091D7
S1130BA0077084850895E0910470F0910570828542
S1130BB093850895E0910470F09105701286138670
S1130BC0089580910470909105700E94A4060E947B
S1130BD09B050E94DA05089581E00E94C6040E94E4
S1130BE0B403E0E4F4E084818B7F84838AE196E0BB
S1130BF00E9464050E949B050E949405E091067082
S1130C00F091077084858F30C8F30E94E1050E943B
S1130C108C0480E090E00E94080580E090E00E944F
S1130C20220588E00E94B10508959091270B81E088
S1130C30911101C080E00895E0E0F4E080818C69C6
S1130C40808384818B7F84838481877F8483848170
S1130C508F7E848380818C7F808381E0808B88ED8C
S1130C6084BF80E8809360000895E0E4F4E080812C
S1130C708760808384818B7F84838081877F808366
S1130C80E0E2FBE087E1818384E080830895E0E68D
S1130C90F4E080818F69808384818861848380818A
S1130CA08F7D808383E88093A2000895E0EAF4E0D6
S1130CB080818F7C80830E948F00089588ED84BF9B
S1130CC0E0E6F0E095E2908784BF11820895E0EABF
S1130CD0F0E0808183608083E0E0F6E080818260E0
S1130CE0808382818D60828384E1858381E0848333
S1130CF095E1908790E4918724E539E0228B338B4A
S1130D0086879081916090838287089580911006F0
S1130D10909111060895FC0184E08083118281E0A2
S1130D208583648775870895E0E0FAE08FE0808327
S1130D3081E086878FEF9FEF86A397A30895FC0138
S1130D409081916090830895FC0190819E7F9083AF
S1130D500895AA1BBB1B51E107C0AA1FBB1FA617FE
S1130D60B70710F0A61BB70B881F991F5A95A9F750
S1130D7080959095BC01CD01089597FB072E16F43C
S1130D80009407D077FD09D00E94A90607FC05D07E
S1130D903EF4909581959F4F0895709561957F4F8E
S1130DA00895EE0FFF1F0590F491E02D0994A29F82
S1130DB0B001B39FC001A39F700D811D1124911D2B
S1130DC0B29F700D811D1124911D08950024A7FD6B
S1130DD000942A173005400550056005700580050C
S10B0DE090050895F894FFCF7B
S10B0DE8000B2009100B197027
S9030000FC
