S021000044616D70696E674D6F746F72436F6E74726F6C4578653030312E737265639E
S11300000C9461000C947E000C947E000C947E0091
S11300100C947E000C947E000C9484020C947E005C
S11300200C947E000C947E000C947E000C947E0054
S11300300C94F8020C9421030C947E000C947E0022
S11300400C947E000C947E000C947E000C947E0034
S11300500C947E000C947E000C947E000C947E0024
S11300600C947E000C947E000C947E000C947E0014
S11300700C947E000C947E000C947E000C947E0004
S11300800C947E000C947E000C947E000C947E00F4
S11300900C947E000C947E000C947E000C947E00E4
S11300A00C947E000C947E000C94AF020C947E00A1
S11300B0A4017E018101840187018A018D019001DF
S11300C0930111241FBECFEFCDBFDFE7DEBF10E7E2
S11300D0A0E0B0E7E8E8FDE002C005900D92A8308A
S11300E0B107D9F720E7A8E0B0E701C01D92A93213
S11300F0B207E1F70E9448030C94C2060C94000076
S1130100E0E0F4E0908581E0892781709085969500
S11301109170891711F08BEF089585E00895E091AF
S11301200270F091037081E481878AE0848781E022
S113013082836DE87BE580910070909101700E944C
S11301405B060895E0910270F0910370838586FF49
S113015005C0838580FD04C081E0089582E0089590
S113016080E00895E0910270F0910370862B8287FD
S11301700895E0910270F091037083858270089570
S1130180E0910270F0910370838580780895E09186
S11301900270F09103708585089580930870089526
S11301A080910070909101700E946F060BC0E091E5
S11301B00070F09101708681882321F080E00E9414
S11301C0CD0004C00E94C000882389F38091007090
S11301D0909101700E9474060895809108700895AA
S11301E0E0910270F091037085870895E0E2F9E0F0
S11301F080818E7F808308950F931F93CF93DF9325
S1130200FC01D62FC0E00EC08F010F5F1F4F80810D
S11302100E94F00060E083E00E94B2000E94D000DF
S1130220CF5FF8018D2F90E02C2F0C2E000C330B98
S1130230281739074CF360E082E00E94B200DF9196
S1130240CF911F910F910895CF92DF92EF92FF9279
S11302500F931F93CF93DF93CDB7DEB72897CDBF0E
S1130260DEBFE82E19821A821B821C821D821E8226
S11302701F821886F12C8E010F5F1F4F10C068017A
S11302808FEFC81AD80A0E94C700F801808360E083
S113029083E00E94B2000E94D000F39486012F2DC7
S11302A030E08E2D90E001972817390744F30E941F
S11302B0C700F801808364E082E00E94B2000E94DB
S11302C0D00029813A814B815C816D817E818F814F
S11302D098852896CDBFDEBFDF91CF911F910F91F6
S11302E0FF90EF90DF90CF90089590E089309105D2
S11302F028F5FC01E85AFF4F0C94A1060E94A801BE
S113030023C00E94CB0120C00E94EE011DC00E94A8
S113031011021AC00E94320217C00E944F0214C078
S11303200E94680211C081E00E942401A0E00E94A2
S1130330B60651F488E00E94920506C081E00E944E
S1130340240180E00E94CD0080E00E94CD00089549
S1130350CF93DF9300D0CDB7DEB719821A820E9403
S1130360B90081110AC082E00E942401822F932FD8
S113037029833A830E94E40409C00E9432058983D8
S11303809A8362E0CE0101960E94FC000F900F90C8
S1130390DF91CF910895CF93DF9300D0CDB7DEB72F
S11303A019821A820E94B90081110AC082E00E9457
S11303B02401822F932F29833A830E94FE0409C0CB
S11303C00E942B0589839A8362E0CE0101960E94E4
S11303D0FC000F900F90DF91CF910895CF93DF939E
S11303E000D0CDB7DEB719821A820E94B9008111FC
S11303F00AC082E00E942401822F932F29833A832A
S11304000E94610409C00E94390589839A8362E0CD
S1130410CE0101960E94FC000F900F90DF91CF91C6
S11304200895CF93DF9300D0CDB7DEB70E94B90013
S113043081110AC082E00E942401822F932F298314
S11304403A830E94B00409C00E94DF0589839A831D
S113045062E0CE0101960E94FC000F900F90DF91A4
S1130460CF910895CF93DF931F92CDB7DEB70E944B
S1130470B900811108C081E00E942401822F2983E0
S11304800E944F0408C00E94E605898361E0CE0102
S113049001960E94FC000F90DF91CF910895CF93B5
S11304A0DF931F92CDB7DEB719820E94B900811184
S11304B003C00E94240108C00E94A305898361E04F
S11304C0CE0101960E94FC000F90DF91CF91089518
S11304D0CF93DF9300D0CDB7DEB719821A820E9482
S11304E0B900811103C00E94240109C00E9456066C
S11304F089839A8362E0CE0101960E94FC000F90EA
S11305000F90DF91CF9108951F920F920FB60F9223
S113051011242F933F934F935F936F937F938F9304
S11305209F93AF93BF93EF93FF930E9477050E942D
S113053080000E946E0481E080930904FF91EF9192
S1130540BF91AF919F918F917F916F915F914F91E7
S11305503F912F910F900FBE0F901F9018951F92EF
S11305600F920FB60F9211242F933F934F935F93E3
S11305706F937F938F939F93AF93BF93EF93FF9367
S11305800E94ED00811117C00E94A20081111FC0BA
S11305900E94B90081111BC060E083E00E94B20098
S11305A00E94D0000E94C7000E94CD0064E082E057
S11305B00E94B2000CC060E083E00E94B2000E947E
S11305C0C0008823E1F30E94ED000E947501FF91B1
S11305D0EF91BF91AF919F918F917F916F915F91B7
S11305E04F913F912F910F900FBE0F901F90189530
S11305F01F920F920FB60F9211242F933F934F9394
S11306005F936F937F938F939F93AF93BF93EF9376
S1130610FF930E94F6000E948F0081E08093060BF6
S1130620FF91EF91BF91AF919F918F917F916F91C6
S11306305F914F913F912F910F900FBE0F901F909C
S113064018951F920F920FB60F9211242F933F9378
S11306504F935F936F937F938F939F93AF93BF93C6
S1130660EF93FF930E948A0581E08093160BFF911C
S1130670EF91BF91AF919F918F917F916F915F9116
S11306804F913F912F910F900FBE0F901F9018958F
S113069078940E942E060E94EC050E9405060E9492
S11306A017060E9426060E9464060E9437060E94CE
S11306B0480505C00E94A30583FD0E94A9050E9468
S11306C02B050196B9F30E943205019699F316C0E1
S11306D00E942B05EC010E943205C817D90724F4A7
S11306E08FEF0E94A20403C081E00E94A2040E9432
S11306F09003E0E4F4E084818B7F84830E941C05F2
S1130700882331F3E0E4F4E08481846084830E94EC
S113071068040E94A30583FFF1CF0E94A905EECFD0
S1130720E0910670F091077086818230F1F12CF42B
S1130730882361F0813001F19CC0843009F467C0E2
S11307400CF44CC0853009F47BC093C0828593853A
S113075048EC489F9001499F300D1124A9E8B8E85E
S11307600E94A706BC0176956795729562956F7095
S113077067277F7067277FC04285538580E991E0B2
S1130780489F9001499F300D589F300D1124A9E8CE
S1130790B8E80E94A706BC017695679572956295A4
S11307A06F7067277F70672766C04285538580E234
S11307B093E0489F9001499F300D589F300D1124BC
S11307C0A9E8B8E80E94A706BC01769567957295DA
S11307D062956F7067277F7067274DC04285538588
S11307E080E496E0489F9001499F300D589F300D5A
S11307F01124A9E8B8E80E94A706BC01769567957C
S1130800729562956F7067277F70672734C0428541
S1130810538580E89CE0489F9001499F300D589F84
S1130820300D1124A9E8B8E80E94A706BC0176950A
S11308306795729562956F7067277F7067271BC0F5
S11308404285538580E099E1489F9001499F300D8E
S1130850589F300D1124A9E8B8E80E94A706BC01EE
S113086076956795729562956F7067277F70672795
S113087002C060E070E06115710521F48585846033
S1130880858708958DE89BE50E947906E0E2FBE008
S11308906487669565878081816080830895A091CF
S11308A00670B091077016968C931697E0E6F4E004
S11308B08481887F8483948116968C91892B848388
S11308C00895E0910670F0910770828793870895E8
S11308D0E0E2FBE080818E7F80830895E0910670E2
S11308E0F09107702081318122833383280F311DD9
S11308F087FD3A95208331830895E0E6F4E0908102
S113090090689083178A813019F0823039F00CC0D6
S1130910E0E6F4E09481906894830EC0E0E6F4E0AD
S113092094819F77948308C0E0E6F4E080818F7718
S1130930808384E0878B80E0E0910670F0910770FB
S113094081870895813031F4E0E4F4E084818260A9
S113095084830895E0E4F4E084818D7F84830895A2
S11309609C01215031092E3F334038F4E091067048
S1130970F09107708783908708C0E0910670F0912A
S1130980077083E391E087839087E0EAF6E01082C2
S1130990A0910670B091077017968D919C9118974D
S11309A00024969587950794969587950794982F94
S11309B0802D1E968D939C931F9782831F968C91F6
S11309C0838381E4808308956AE070E00E948D0649
S11309D0CB01880F991F660F771F660F771F660F6D
S11309E0771F680F791F6D3281E0780730F4E0914A
S11309F00670F0910770648375830895E091067022
S1130A00F091077020813181228333836AE070E0A2
S1130A100E948D06CB01880F991F660F771F660F02
S1130A20771F660F771F680F791F6D3281E0780793
S1130A3010F4608371830895E0910670F09107705B
S1130A4020813181848195812817390711F481E04F
S1130A50089580E00895E0910670F0910770808118
S1130A6091810895E0910670F091077084819581D9
S1130A700895E0910670F09107708285938508953A
S1130A80BC0180910470909105700E945B060895EA
S1130A90E0E4F4E08481846084838AE991E00E9444
S1130AA0B00481E00E944F0484E690E00E94610457
S1130AB080E00E947D048DE89BE50E944005E09162
S1130AC00670F09107708FEF9FEF80839183E09120
S1130AD00670F091077084839583828393830895CD
S1130AE080910470909105700E946F060895E091C2
S1130AF00470F091057012861386E0910670F091EF
S1130B0007701486089580910470909105700E9476
S1130B1074060895E0910670F091077084858F5FE4
S1130B2084870895E0910670F09107709585892B6C
S1130B3085870895E0910670F091077080959585FA
S1130B40892385870895E0910670F0910770858563
S1130B50089581E00E94A2040E949003E0E4F4E07E
S1130B6084818B7F848383EE96E10E9440050E94FA
S1130B7077050E94700541E010C0E0910670F09185
S1130B8007708485823008F040E0228133818081BF
S1130B909181281739070CF440E04111EECF0E94EF
S1130BA083050E94680480E090E00E94E40480E0F1
S1130BB090E00E94FE0488E00E949A050895E09166
S1130BC00670F0910770878190850895E091067012
S1130BD0F091077086810895E0E0F4E080818C69EB
S1130BE0808384818B7F84838481877F84838481D1
S1130BF08F7E848380818C7F808381E0808B88EDED
S1130C0084BF80E8809360000895E0E4F4E080818C
S1130C108760808384818B7F84838081877F8083C6
S1130C20E0E2FBE087E1818384E080830895E0E6ED
S1130C30F4E080818F6980838481886184838081EA
S1130C408F7D808383E88093A2000895E0EAF4E036
S1130C5080818F7C80830E948F00089588ED84BFFB
S1130C60E0E6F0E095E2908784BF11820895E0EA1F
S1130C70F0E0808183608083E0E0F6E08081826040
S1130C80808382818D60828384E1858381E0848393
S1130C9095E1908790E4918724E539E0228B338BAA
S1130CA08687908191609083828708958091100651
S1130CB0909111060895FC0184E08083118281E003
S1130CC08583648775870895E0E0FAE08FE0808388
S1130CD081E086878FEF9FEF86A397A30895FC0199
S1130CE09081916090830895FC0190819E7F908310
S1130CF00895AA1BBB1B51E107C0AA1FBB1FA6175F
S1130D00B70710F0A61BB70B881F991F5A95A9F7B0
S1130D1080959095BC01CD01089597FB072E16F49C
S1130D20009407D077FD09D00E94790607FC05D00E
S1130D303EF4909581959F4F0895709561957F4FEE
S1130D400895EE0FFF1F0590F491E02D0994A29FE2
S1130D50B001B39FC001A39F700D811D1124911D8B
S1130D60B29F700D811D1124911D08950024A7FDCB
S1130D7000942A173005400550056005700580056C
S10B0D8090050895F894FFCFDB
S10B0D88000B2009100B197087
S9030000FC
